:100000005DC0000080C000007EC000007CC0000019
:100010007AC0000078C0000076C00000B5C20000C1
:1000200072C0000070C000006EC00000A4C10000DB
:100030006AC0000068C0000066C0000064C0000024
:100040008DC0000060C000005EC000005CC0000009
:100050005AC0000058C0000056C0000054C0000044
:1000600052C0000050C00000020000000800020161
:10007000000003040700000000000000000102046B
:10008000081020408001020408102001020408101A
:100090002004040404040404040202020202020311
:1000A000030303030300000000250028002B0000C9
:1000B000000000240027002A00009C0011241FBE1D
:1000C000CFEFD8E0DEBFCDBF11E0A0E0B1E0ECE7BC
:1000D000F7E002C005900D92A230B107D9F721E0F8
:1000E000A2E0B1E001C01D92AE33B207E1F710E02B
:1000F000CCEBD0E003C02297FE013AD3CA3BD10734
:10010000D1F721D039C37CCFCF93DF9343E062E0B6
:1001100082E091E004D1C8E1D5E182E091E01AD11A
:1001200061E070E080E090E086D021972097A9F709
:10013000DF91CF910895089585E091E0D6D182E0D6
:1001400091E0ECC00895AED0FDDFDEDFC0E0D0E08E
:10015000F2DF2097E9F30E940000FACF1F920F927E
:100160000FB60F9211242F933F938F939F93AF93CA
:10017000BF938091090190910A01A0910B01B09168
:100180000C013091080123E0230F2D3720F4019654
:10019000A11DB11D05C026E8230F0296A11DB11DAA
:1001A000209308018093090190930A01A0930B0109
:1001B000B0930C0180910D0190910E01A0910F015F
:1001C000B09110010196A11DB11D80930D01909376
:1001D0000E01A0930F01B0931001BF91AF919F91B9
:1001E0008F913F912F910F900FBE0F901F901895F8
:1001F0003FB7F89480910D0190910E01A0910F01ED
:10020000B091100126B5A89B05C02F3F19F00196AB
:10021000A11DB11D3FBF6627782F892F9A2F620F2E
:10022000711D811D911D42E0660F771F881F991F68
:100230004A95D1F708958F929F92AF92BF92CF9235
:10024000DF92EF92FF926B017C01D2DF4B015C01E8
:10025000C114D104E104F104E1F05FD0C9DF6819F1
:1002600079098A099B09683E73408105910580F3ED
:1002700021E0C21AD108E108F10888EE880E83E077
:10028000981EA11CB11CC114D104E104F10431F782
:10029000DFCFFF90EF90DF90CF90BF90AF909F9017
:1002A0008F900895789484B5826084BD84B5816010
:1002B00084BD85B5826085BD85B5816085BDEEE66E
:1002C000F0E0808181608083E1E8F0E0108280814D
:1002D00082608083808181608083E0E8F0E08081BB
:1002E00081608083E1EBF0E0808184608083E0EBDB
:1002F000F0E0808181608083EAE7F0E080818460C3
:10030000808380818260808380818160808380811E
:10031000806880831092C1000895089508950F9316
:100320001F93CF93DF931F92CDB7DEB78C01862F3B
:10033000F8016183428361E04983AAD161E0498188
:10034000842FA6D1F80110820F90DF91CF911F91D9
:100350000F910895CF93DF93EC0160E08A81D1D1B2
:1003600068818981CED161E08A81CBD160E08A81C8
:10037000DF91CF91C6C11F920F920FB60F92112439
:100380002F933F934F935F936F937F938F939F939D
:10039000AF93BF93EF93FF938091120187FF05C046
:1003A00010928500109284001AC020911201332708
:1003B00027FD30958091110190E0281739077CF4D2
:1003C00080911201992787FD9095FC01EE0FFF1F88
:1003D000E80FF91FED5EFE4F808186FD15C080910C
:1003E00012018F5F8093120120911201332727FDA4
:1003F00030958091110190E028173907B4F480916D
:1004000012018C3054F111C080911201992787FD9F
:100410009095FC01EE0FFF1FE80FF91FED5EFE4FF8
:10042000808160E08F736DD1DACF809184009091EC
:100430008500049680349C4918F480E49CE905C04A
:100440008091840090918500049690938900809318
:1004500088008FEF8093120137C020918400309183
:10046000850080911201992787FD9095FC01EE0F80
:10047000FF1FE80FF91FED5EFE4F81819281820F11
:10048000931F90938900809388008091120199278F
:1004900087FD9095FC01EE0FFF1FE80FF91FED5E41
:1004A000FE4F808186FF10C080911201992787FD41
:1004B0009095FC01EE0FFF1FE80FF91FED5EFE4F58
:1004C000808161E08F731DD1FF91EF91BF91AF915A
:1004D0009F918F917F916F915F914F913F912F915C
:1004E0000F900FBE0F901F901895209111012C3086
:1004F000A0F431E0320F30931101FC012083822FF0
:1005000090E0FC01EE0FFF1FE80FF91FED5EFE4FBC
:1005100088EB9BE09283818308952FEFFC01208379
:100520000895813039F018F0823051F0089510921A
:100530006E00089580916F008D7F80936F00089505
:10054000809170008D7F8093700081E08093B00077
:100550008091B100887F84608093B1001092B300D5
:100560000895CF93C82F809100018C1307C0E8E64F
:10057000F0E084919FEF9093000101C08FEFD1DFF5
:1005800060E08C2FCF91BDC01F920F920FB60F92DB
:1005900011242F933F934F935F936F937F938F9388
:1005A0009F93AF93BF93EF93FF9380913A01909104
:1005B0003B01A0913C01B0913D01892B8A2B8B2BF3
:1005C00051F190913701E0913801F091390180812A
:1005D0008927808380913A0190913B01A0913C0151
:1005E000B0913D01181619061A061B06BCF480913D
:1005F0003A0190913B01A0913C01B0913D010197DE
:10060000A109B10980933A0190933B01A0933C0169
:10061000B0933D0103C080910001A3DFFF91EF91F2
:10062000BF91AF919F918F917F916F915F914F910A
:100630003F912F910F900FBE0F901F901895833010
:1006400081F028F4813099F08230A1F0089587304C
:10065000A9F08830B9F08430D1F4809180008F7D8A
:1006600003C0809180008F7780938000089584B5C7
:100670008F7702C084B58F7D84BD08958091B000CE
:100680008F7703C08091B0008F7D8093B000089574
:10069000CF93DF9390E0FC01E358FF4F2491FC01DE
:1006A000EF56FF4F8491882349F190E0880F991FFE
:1006B000FC01E155FF4FA591B4918B559F4FFC0173
:1006C000C591D4919FB7611108C0F8948C91209581
:1006D00082238C93888182230AC0623051F4F8947B
:1006E0008C91322F309583238C938881822B888341
:1006F00004C0F8948C91822B8C939FBFDF91CF9193
:1007000008950F931F93CF93DF931F92CDB7DEB75A
:10071000282F30E0F901E759FF4F8491F901E358A0
:10072000FF4F1491F901EF56FF4F04910023C1F0E0
:10073000882319F0698383DF6981E02FF0E0EE0FF1
:10074000FF1FEB55FF4FA591B4919FB7F8948C9183
:10075000611103C01095812301C0812B8C939FBF31
:100760000F90DF91CF911F910F910895EE0FFF1F12
:0C0770000590F491E02D0994F894FFCF5F
:02077C00FF007C
:00000001FF
